:100000000C94DE000C9406010C9406010C9406017D
:100010000C9406010C9406010C9406010C94060144
:100020000C9406010C9406010C9406010C94060134
:100030000C9406010C9406010C9406010C94060124
:100040000C947F180C9406010C944D180C942718EE
:100050000C9406010C9406010C9406010C94060104
:100060000C9406010C940601466F756E642073793A
:100070006E636564206C65644974656D00466F75D8
:100080006E6420616E642072656672657368656473
:100090002053796E63506172656E74000000000831
:1000A000000201000003040700000000000000003F
:1000B0005365747570204250696E200053657475E5
:1000C00070204750696E200053657475702052503F
:1000D000696E2000437265617465642046617374C3
:1000E0004C4544005365747570204450696E20007F
:1000F0004D75736963204D6F646520697320747555
:10010000726E6564206F6E00536574206974656D4E
:1001100020746F206D6F64653A200053657420531E
:10012000796E63506172656E7420746F3A2000437B
:1001300072656174696E67206E6577204974656DBC
:1001400020776974682049443A2000466F756E64D0
:10015000206578697374696E67204974656D2077CE
:100160006974682049443A200041726475696E6F71
:100170002072656365697665643A200000000000BE
:10018000250028002B0000000000240027002A0082
:10019000040404040404040402020202020203032D
:1001A0000303030301020408102040800102040835
:1001B0001020010204081020C9184C2511241FBE6C
:1001C000CFEFD8E0DEBFCDBF23E0A0EDB1E001C0AE
:1001D0001D92AA34B207E1F711E0A0E0B1E0E8E235
:1001E000F4E502C005900D92A03DB107D9F710E0EB
:1001F000CDEDD0E004C02197FE010E94E627CC3D62
:10020000D107C9F70E9416190C94072A0C94000014
:1002100090E0FC01EC55FE4F249180579E4FFC016D
:100220008491882399F090E0880F991FFC01EA5788
:10023000FE4FA591B491FC01E458FE4F8591949135
:100240008FB7F894EC91E22BEC938FBF0895EF9267
:10025000FF920F931F93CF93DF93EC017B018A01F1
:10026000E881F9810480F581E02D0995FB82EA821D
:100270001E870D87E881F9810284F385E02DCE0188
:100280000995009701F19C0150E040E060E472E4C0
:100290008FE090E00E94C72780912A0390912B0362
:1002A000A0912C03B0912D0382179307A407B507E3
:1002B00010F4DA01C90180932A0390932B03A093D1
:1002C0002C03B0932D03CE01DF91CF911F910F919D
:1002D000FF90EF900895FB01DC016C9112967C91E8
:1002E000962F990F990F990F35E5292F239F020E0D
:1002F00020E0211D1124822F562F5074462F40726A
:1003000067FD47C0511133C0411105C0922F909530
:10031000892F90E004C025E5280F90E08BEA7F3F0D
:1003200009F421C030E0772321F0779F312D09F0C7
:100330003F5F332309F44EC0882331F0482F439F99
:10034000040E40E0411D842F222321F0239F020E42
:1003500020E0211D992331F0492F439F040E40E0F6
:10036000411D942F1124808321839283089541118C
:100370000BC0392F2AEA329F030E30E0311D1124C1
:100380009BEA931B280FC4CF90E02095982F80E024
:10039000C6CF511112C041110CC0392F2AEA329F29
:1003A000030E30E0311D11242BEA231B95E5930F3A
:1003B000EECF922F909520E0B2CF411106C025E5F7
:1003C000280F9BEA981B822FF6CF2AEA280F90E08D
:1003D000932FF8CF90E020E080E0C5CF0895AF9252
:1003E000BF92CF92DF92EF92FF920F931F93CF9322
:1003F000DF936C017B018B01040F151FEB015E0184
:10040000AE18BF08C017D10759F06991D601ED9118
:10041000FC910190F081E02DC6010995892B79F7B7
:10042000C501DF91CF911F910F91FF90EF90DF9069
:10043000CF90BF90AF900895FC01538D448D252F30
:1004400030E0842F90E0821B930B541710F0CF966E
:10045000089501970895FC01918D828D981761F0A0
:10046000A28DAE0FBF2FB11D5D968C91928D9F5FB7
:100470009F73928F90E008958FEF9FEF0895FC0196
:10048000918D828D981731F0828DE80FF11D858D49
:1004900090E008958FEF9FEF0895FC01918D228DDC
:1004A000892F90E0805C9F4F821B91098F73992761
:1004B00008958AE892E00E944D0221E0892B09F418
:1004C00020E0822F0895FC01A48DA80FB92FB11D43
:1004D000A35ABF4F2C91848D90E001968F7399277A
:1004E000848FA689B7892C93A089B1898C91837058
:1004F00080648C93938D848D981306C00288F38951
:10050000E02D80818F7D80830895EF92FF920F937D
:100510001F93CF93DF93EC0181E0888F9B8D8C8DAF
:1005200098131AC0E889F989808185FF15C09FB7A3
:10053000F894EE89FF896083E889F9898081837066
:10054000806480839FBF81E090E0DF91CF911F9115
:100550000F91FF90EF900895F62E0B8D10E00F5F36
:100560001F4F0F731127E02E8C8D8E110CC00FB60C
:1005700007FCFACFE889F989808185FFF5CFCE01A4
:100580000E946302F1CFEB8DEC0FFD2FF11DE35ABA
:10059000FF4FF0829FB7F8940B8FEA89FB89808127
:1005A0008062CFCF0F931F93CF93DF938C01D0E066
:1005B000C0E0F801EC0FFD1F6491662341F08AE86A
:1005C00092E00E948502892B11F02196F2CFCE0194
:1005D000DF91CF911F910F910895CF93DF93EC019D
:1005E000888D8823B9F0AA89BB89E889F9898C911B
:1005F00085FD03C0808186FD0DC00FB607FCF7CFD7
:100600008C9185FFF2CF808185FFEDCFCE010E94D6
:100610006302E9CFDF91CF91089590E0FC01E456A9
:10062000FF4F2491FC01EC55FE4F3491FC01E05743
:10063000FE4FE491EE23C9F0222339F0233001F17B
:10064000A8F4213019F1223029F1F0E0EE0FFF1F5C
:10065000E458FE4FA591B4918FB7F894EC916111D5
:1006600026C030953E233C938FBF08952730A9F0D4
:100670002830C9F0243049F7809180008F7D03C075
:10068000809180008F7780938000DFCF84B58F7753
:1006900084BDDBCF84B58F7DFBCF8091B0008F7799
:1006A0008093B000D2CF8091B0008F7DF9CF3E2BE8
:1006B000DACF1F93CF93DF93182FEB010E9408012D
:1006C000209739F460E0812FDF91CF911F910C9436
:1006D0000D03CF3FD10511F461E0F5CFE12FF0E03C
:1006E000E456FF4FE491E33031F140F4E130B1F0F2
:1006F000E230E1F0C038D1057CF7E4CFE73029F1F2
:10070000E83059F1E430B1F7809180008062809345
:100710008000D0938B00C0938A0004C084B58068A9
:1007200084BDC7BDDF91CF911F91089584B58062CC
:1007300084BDC8BDF7CF8091800080688093800021
:10074000D0938900C0938800EDCF8091B00080687D
:100750008093B000C093B300E5CF8091B000806279
:100760008093B000C093B400DDCF3FB7F894809180
:10077000D8019091D901A091DA01B091DB0126B5A1
:10078000A89B05C02F3F19F00196A11DB11D3FBFC9
:10079000BA2FA92F982F8827BC01CD01620F711D98
:1007A000811D911D42E0660F771F881F991F4A9592
:1007B000D1F708954F925F926F927F929F92AF927E
:1007C000BF92CF92DF92EF92FF920F931F93CF933E
:1007D000DF9300D01F92CDB7DEB7F0902703809152
:1007E0002A0390912B03A0912C03B0912D03892B08
:1007F0008A2B8B2BD9F00E94B503009186021091B1
:1008000087022091880230918902601B710B820B54
:10081000930B00912A0310912B0320912C0330910C
:100820002D036017710782079307C8F20E94B50372
:100830006093860270938702809388029093890266
:10084000E0913203F0913303309759F040912E0339
:1008500050912F0360913003709131038F2D0995D2
:10086000F82E00918402109185024F2C512C712C8E
:10087000612C0115110509F45EC0D8011C96EC909D
:100880001C9780912803909129038436910510F4D8
:100890001C961C92D801ED91FC91A280B380198224
:1008A0001A821B82FF2089F1F8013696D12CC12CC7
:1008B0002191222319F19280992001F130E050E03A
:1008C00040E02F5F3F4F4F4F5F4FC301B2010E9487
:1008D00081279B01AC01892D90E0B0E0A0E0BC0134
:1008E000CD016F5F7F4F8F4F9F4F0E948127A1E007
:1008F000B0E0AC0FBD1FAC0DBD1D8C93BFEFCB1A8C
:10090000DB0A83E0C816D10499F6D8011D964D91F3
:100910005C911E9712966D917C919E012F5F3F4FC7
:10092000C801F5010995D8011C96EC921C97149604
:100930000D911C919ECF80918202909183029C0127
:100940002F5F3F4F309383022093820249970CF42C
:1009500045C08FB7F89420917A0230917B02409184
:100960007C0250917D028FBFE0918202F091830260
:1009700088EE93E0E89FB001E99F700DF89F700D3D
:100980001124072E000C880B990BC0907E02D0908A
:100990007F02E0908002F09081022C193D094E09FF
:1009A0005F090E94A5273093290320932803109202
:1009B0008302109282022FB7F89480917A0290916C
:1009C0007B02A0917C02B0917D022FBF80937E02BA
:1009D00090937F02A0938002B09381020F900F90BA
:1009E0000F90DF91CF911F910F91FF90EF90DF90CB
:1009F000CF90BF90AF909F907F906F905F904F90FF
:100A000008958F929F92AF92BF92CF92DF92EF9212
:100A1000FF924B015C010E94B5036B017C010E94B7
:100A2000B5036C197D098E099F09683E73408105E5
:100A30009105A8F321E0821A9108A108B10888EE77
:100A4000C80E83E0D81EE11CF11C81149104A1049E
:100A5000B10429F7FF90EF90DF90CF90BF90AF9057
:100A60009F908F9008950F931F93CF93DF932091C2
:100A7000D6012F5F322F37703093D60120FF2BC065
:100A800020E831FD2064347009F02062205FFC0111
:100A9000EC01239600E011E06485662329F070E004
:100AA000C8010E9491276F5F6187322F369F030E26
:100AB00030E0311D1124311110C01682662311F06F
:100AC000615061873196EC17FD0731F7DF91CF91C7
:100AD0001F910F91089520E0D4CF31503683EECF8F
:100AE000CF93DF93EC010E94B50379836883DF9194
:100AF000CF910895CF93DF93EC010E94B503288135
:100B00003981621B730B6A307105B8F3DF91CF91A5
:100B100008954F925F926F927F928F929F92AF92C1
:100B2000CF92DF92EF92FF920F931F93CF93DF93B9
:100B3000EB010F962C010E947A05F894E881F98167
:100B40000BB108601BB1177F1BB9CA848F814C2D74
:100B5000481B842F4F839F846A807B80FD84EC84B4
:100B6000DE84F394E394D3949E8138858984AB84A6
:100B70004181D30120E0622F722F71814427889434
:100B80007111780F08F47FEF81958894F0FC470F7E
:100B900047958894F1FC470F47958894F2FC470FDE
:100BA00047958894F3FC470F47958894F4FC470FCA
:100BB00047958894F5FC470F47958894F6FC470FB6
:100BC00047958894F7FC470F47958894272FF11095
:100BD000242F8C0D422F002C0BB900C047FF1BB9EE
:100BE00070812227889400C000C0002C1BB97111AD
:100BF000790F00C0002C0BB900C046FF1BB908F4E8
:100C00007FEF9195889400C000C0002C1BB9E0FCD8
:100C1000270F00C0002C0BB900C045FF1BB927955A
:100C20008894E1FC270F00C000C0002C1BB9279559
:100C3000889400C0002C0BB900C044FF1BB9E2FC33
:100C4000270F2795889400C000C0002C1BB9E3FC37
:100C5000270F00C0002C0BB900C043FF1BB927951C
:100C60008894E4FC270F00C000C0002C1BB9279516
:100C7000889400C0002C0BB900C042FF1BB9E5FCF2
:100C8000270F2795889400C000C0002C1BB9E6FCF4
:100C9000270F00C0002C0BB900C041FF1BB92795DE
:100CA0008894E7FC270F00C000C0002C1BB92795D3
:100CB000889400C0002C0BB900C040FF1BB9472F1F
:100CC000E110422F980D00C000C0002C1BB900C0DD
:100CD00000C0002C0BB900C047FF1BB9728122274E
:100CE000889400C000C0002C1BB97111730F00C0A4
:100CF000002C0BB900C046FF1BB908F47FEFE90DCB
:100D0000F11D00C000C0002C1BB9D0FC270F00C093
:100D1000002C0BB900C045FF1BB927958894D1FC66
:100D2000270F00C000C0002C1BB92795889400C075
:100D3000002C0BB900C044FF1BB9D2FC270F27952C
:100D4000889400C000C0002C1BB9D3FC270F00C042
:100D5000002C0BB900C043FF1BB927958894D4FC25
:100D6000270F00C000C0002C1BB92795889400C035
:100D7000002C0BB900C042FF1BB9D5FC270F2795EB
:100D8000889400C000C0002C1BB9D6FC270F00C0FF
:100D9000002C0BB900C041FF1BB927958894D7FCE4
:100DA000270F00C000C0002C1BB92795889400C0F5
:100DB000002C0BB900C040FF1BB9472FD110422FA8
:100DC000319500C000C0002C1BB93A0D00C000C016
:100DD0000BB900C047FF1BB971812227889400C05E
:100DE00000C0002C1BB97111780F00C0002C0BB98A
:100DF00000C046FF1BB908F47FEF8195889400C0BE
:100E000000C0002C1BB9F0FC270F00C0002C0BB950
:100E100000C045FF1BB927958894F1FC270F00C03F
:100E200000C0002C1BB92795889400C0002C0BB97A
:100E300000C044FF1BB9F2FC270F2795889400C01F
:100E400000C0002C1BB9F3FC270F00C0002C0BB90D
:100E500000C043FF1BB927958894F4FC270F00C0FE
:100E600000C0002C1BB92795889400C0002C0BB93A
:100E700000C042FF1BB9F5FC270F2795889400C0DE
:100E800000C0002C1BB9F6FC270F00C0002C0BB9CA
:100E900000C041FF1BB927958894F7FC270F00C0BD
:100EA00000C0002C1BB92795889400C0002C0BB9FA
:100EB00000C040FF1BB9472FF110422F8C0D00C01E
:100EC00000C0002C1BB9119709F086CE20EE31E04E
:100ED000D3010E94EC27DC01CB01F4E0B695A79585
:100EE00097958795FA95D1F730E020E0B901EAE9C6
:100EF0006E9E060C611D7E9E600D711D1124670D96
:100F0000711D860F971FA11DB11D893E43E09407F7
:100F1000A105B10508F434C0885E9340A109B10968
:100F200042E0B695A795979587954A95D1F747E002
:100F3000849F080E211D949F200D311D1124290F1F
:100F4000311D6091D50170E0860F971F820F931FAE
:100F500040917A0250917B0260917C0270917D02F7
:100F6000292F3327420F531F611D711D40937A02B1
:100F700050937B0260937C0270937D028093D50135
:100F80007894C201DF91CF911F910F91FF90EF9064
:100F9000DF90CF90AF909F908F907F906F905F90F9
:100FA0004F900C94700580E991E00895539A08954C
:100FB0004F925F926F927F928F929F92AF92CF9259
:100FC000DF92EF92FF920F931F93CF93DF93EB018A
:100FD0000F962C010E947A05F894E881F9810BB1F3
:100FE00000621BB11F7D1BB9CA848F814C2D481B29
:100FF000842F4F839F846A807B80FD84EC84DE8411
:10100000F394E394D3949E8138858984AB844181A1
:10101000D30120E0622F722F7181442788947111CF
:10102000780F08F47FEF81958894F0FC470F47957F
:101030008894F1FC470F47958894F2FC470F479539
:101040008894F3FC470F47958894F4FC470F479525
:101050008894F5FC470F47958894F6FC470F479511
:101060008894F7FC470F47958894272FF110242F79
:101070008C0D422F002C0BB900C047FF1BB97081AB
:101080002227889400C000C0002C1BB97111790F71
:1010900000C0002C0BB900C046FF1BB908F47FEF5D
:1010A0009195889400C000C0002C1BB9E0FC270F6C
:1010B00000C0002C0BB900C045FF1BB927958894D0
:1010C000E1FC270F00C000C0002C1BB927958894B5
:1010D00000C0002C0BB900C044FF1BB9E2FC270F75
:1010E0002795889400C000C0002C1BB9E3FC270F93
:1010F00000C0002C0BB900C043FF1BB92795889492
:10110000E4FC270F00C000C0002C1BB92795889471
:1011100000C0002C0BB900C042FF1BB9E5FC270F33
:101120002795889400C000C0002C1BB9E6FC270F4F
:1011300000C0002C0BB900C041FF1BB92795889453
:10114000E7FC270F00C000C0002C1BB9279588942E
:1011500000C0002C0BB900C040FF1BB9472FE110A5
:10116000422F980D00C000C0002C1BB900C000C069
:10117000002C0BB900C047FF1BB97281222788944D
:1011800000C000C0002C1BB97111730F00C0002CEF
:101190000BB900C046FF1BB908F47FEFE90DF11D44
:1011A00000C000C0002C1BB9D0FC270F00C0002CD1
:1011B0000BB900C045FF1BB927958894D1FC270FB8
:1011C00000C000C0002C1BB92795889400C0002CDB
:1011D0000BB900C044FF1BB9D2FC270F2795889498
:1011E00000C000C0002C1BB9D3FC270F00C0002C8E
:1011F0000BB900C043FF1BB927958894D4FC270F77
:1012000000C000C0002C1BB92795889400C0002C9A
:101210000BB900C042FF1BB9D5FC270F2795889456
:1012200000C000C0002C1BB9D6FC270F00C0002C4A
:101230000BB900C041FF1BB927958894D7FC270F35
:1012400000C000C0002C1BB92795889400C0002C5A
:101250000BB900C040FF1BB9472FD110422F319569
:1012600000C000C0002C1BB93A0D00C000C00BB973
:1012700000C047FF1BB971812227889400C000C0BD
:10128000002C1BB97111780F00C0002C0BB900C0E5
:1012900046FF1BB908F47FEF8195889400C000C019
:1012A000002C1BB9F0FC270F00C0002C0BB900C0AC
:1012B00045FF1BB927958894F1FC270F00C000C09B
:1012C000002C1BB92795889400C0002C0BB900C0D6
:1012D00044FF1BB9F2FC270F2795889400C000C07B
:1012E000002C1BB9F3FC270F00C0002C0BB900C069
:1012F00043FF1BB927958894F4FC270F00C000C05A
:10130000002C1BB92795889400C0002C0BB900C095
:1013100042FF1BB9F5FC270F2795889400C000C039
:10132000002C1BB9F6FC270F00C0002C0BB900C025
:1013300041FF1BB927958894F7FC270F00C000C018
:10134000002C1BB92795889400C0002C0BB900C055
:1013500040FF1BB9472FF110422F8C0D00C000C079
:10136000002C1BB9119709F086CE20EE31E0D30195
:101370000E94EC27DC01CB01F4E0B695A795979588
:101380008795FA95D1F730E020E0B901EAE96E9E41
:10139000060C611D7E9E600D711D1124670D711D6F
:1013A000860F971FA11DB11D893E43E09407A1053B
:1013B000B10508F434C0885E9340A109B10942E048
:1013C000B695A795979587954A95D1F747E0849F5D
:1013D000080E211D949F200D311D1124290F311D50
:1013E0006091D50170E0860F971F820F931F409187
:1013F0007A0250917B0260917C0270917D02292FCC
:101400003327420F531F611D711D40937A02509381
:101410007B0260937C0270937D028093D501789467
:10142000C201DF91CF911F910F91FF90EF90DF905C
:10143000CF90AF909F908F907F906F905F904F90E4
:101440000C947005559A08954F925F926F927F9217
:101450008F929F92AF92CF92DF92EF92FF920F9373
:101460001F93CF93DF93EB010F962C010E947A0517
:10147000F894E881F9810BB100641BB11F7B1BB9A3
:10148000CA848F814C2D481B842F4F839F846A8090
:101490007B80FD84EC84DE84F394E394D3949E817A
:1014A00038858984AB844181D30120E0622F722F7B
:1014B0007181442788947111780F08F47FEF81952A
:1014C0008894F0FC470F47958894F1FC470F4795A7
:1014D0008894F2FC470F47958894F3FC470F479593
:1014E0008894F4FC470F47958894F5FC470F47957F
:1014F0008894F6FC470F47958894F7FC470F47956B
:101500008894272FF110242F8C0D422F002C0BB91B
:1015100000C047FF1BB970812227889400C000C01B
:10152000002C1BB97111790F00C0002C0BB900C041
:1015300046FF1BB908F47FEF9195889400C000C066
:10154000002C1BB9E0FC270F00C0002C0BB900C019
:1015500045FF1BB927958894E1FC270F00C000C008
:10156000002C1BB92795889400C0002C0BB900C033
:1015700044FF1BB9E2FC270F2795889400C000C0E8
:10158000002C1BB9E3FC270F00C0002C0BB900C0D6
:1015900043FF1BB927958894E4FC270F00C000C0C7
:1015A000002C1BB92795889400C0002C0BB900C0F3
:1015B00042FF1BB9E5FC270F2795889400C000C0A7
:1015C000002C1BB9E6FC270F00C0002C0BB900C093
:1015D00041FF1BB927958894E7FC270F00C000C086
:1015E000002C1BB92795889400C0002C0BB900C0B3
:1015F00040FF1BB9472FE110422F980D00C000C0DB
:10160000002C1BB900C000C0002C0BB900C047FF64
:101610001BB972812227889400C000C0002C1BB91E
:101620007111730F00C0002C0BB900C046FF1BB92D
:1016300008F47FEFE90DF11D00C000C0002C1BB9BC
:10164000D0FC270F00C0002C0BB900C045FF1BB910
:1016500027958894D1FC270F00C000C0002C1BB92F
:101660002795889400C0002C0BB900C044FF1BB91B
:10167000D2FC270F2795889400C000C0002C1BB90E
:10168000D3FC270F00C0002C0BB900C043FF1BB9CF
:1016900027958894D4FC270F00C000C0002C1BB9EC
:1016A0002795889400C0002C0BB900C042FF1BB9DD
:1016B000D5FC270F2795889400C000C0002C1BB9CB
:1016C000D6FC270F00C0002C0BB900C041FF1BB98E
:1016D00027958894D7FC270F00C000C0002C1BB9A9
:1016E0002795889400C0002C0BB900C040FF1BB99F
:1016F000472FD110422F319500C000C0002C1BB9DC
:101700003A0D00C000C00BB900C047FF1BB9718182
:101710002227889400C000C0002C1BB97111780FDB
:1017200000C0002C0BB900C046FF1BB908F47FEFC6
:101730008195889400C000C0002C1BB9F0FC270FD5
:1017400000C0002C0BB900C045FF1BB92795889439
:10175000F1FC270F00C000C0002C1BB9279588940E
:1017600000C0002C0BB900C044FF1BB9F2FC270FCE
:101770002795889400C000C0002C1BB9F3FC270FEC
:1017800000C0002C0BB900C043FF1BB927958894FB
:10179000F4FC270F00C000C0002C1BB927958894CB
:1017A00000C0002C0BB900C042FF1BB9F5FC270F8D
:1017B0002795889400C000C0002C1BB9F6FC270FA9
:1017C00000C0002C0BB900C041FF1BB927958894BD
:1017D000F7FC270F00C000C0002C1BB92795889488
:1017E00000C0002C0BB900C040FF1BB9472FF110FF
:1017F000422F8C0D00C000C0002C1BB9119709F0BE
:1018000086CE20EE31E0D3010E94EC27DC01CB0133
:10181000F4E0B695A79597958795FA95D1F730E0BE
:1018200020E0B901EAE96E9E060C611D7E9E600D06
:10183000711D1124670D711D860F971FA11DB11D0C
:10184000893E43E09407A105B10508F434C0885EE1
:101850009340A109B10942E0B695A7959795879560
:101860004A95D1F747E0849F080E211D949F200DD3
:10187000311D1124290F311D6091D50170E0860FB3
:10188000971F820F931F40917A0250917B026091C3
:101890007C0270917D02292F3327420F531F611D57
:1018A000711D40937A0250937B0260937C02709387
:1018B0007D028093D5017894C201DF91CF911F9171
:1018C0000F91FF90EF90DF90CF90AF909F908F900F
:1018D0007F906F905F904F900C947005569A08958A
:1018E0004F925F926F927F928F929F92AF92CF9220
:1018F000DF92EF92FF920F931F93CF93DF93EB0151
:101900000F962C010E947A05F894E881F98105B1BF
:10191000026015B11D7F15B9CA848F814C2D481BFB
:10192000842F4F839F846A807B80FD84EC84DE84D7
:10193000F394E394D3949E8138858984AB84418168
:10194000D30120E0622F722F718144278894711196
:10195000780F08F47FEF81958894F0FC470F479546
:101960008894F1FC470F47958894F2FC470F479500
:101970008894F3FC470F47958894F4FC470F4795EC
:101980008894F5FC470F47958894F6FC470F4795D8
:101990008894F7FC470F47958894272FF110242F40
:1019A0008C0D422F002C05B900C047FF15B970817E
:1019B0002227889400C000C0002C15B97111790F3E
:1019C00000C0002C05B900C046FF15B908F47FEF30
:1019D0009195889400C000C0002C15B9E0FC270F39
:1019E00000C0002C05B900C045FF15B927958894A3
:1019F000E1FC270F00C000C0002C15B92795889482
:101A000000C0002C05B900C044FF15B9E2FC270F47
:101A10002795889400C000C0002C15B9E3FC270F5F
:101A200000C0002C05B900C043FF15B92795889464
:101A3000E4FC270F00C000C0002C15B9279588943E
:101A400000C0002C05B900C042FF15B9E5FC270F06
:101A50002795889400C000C0002C15B9E6FC270F1C
:101A600000C0002C05B900C041FF15B92795889426
:101A7000E7FC270F00C000C0002C15B927958894FB
:101A800000C0002C05B900C040FF15B9472FE11078
:101A9000422F980D00C000C0002C15B900C000C036
:101AA000002C05B900C047FF15B972812227889420
:101AB00000C000C0002C15B97111730F00C0002CBC
:101AC00005B900C046FF15B908F47FEFE90DF11D17
:101AD00000C000C0002C15B9D0FC270F00C0002C9E
:101AE00005B900C045FF15B927958894D1FC270F8B
:101AF00000C000C0002C15B92795889400C0002CA8
:101B000005B900C044FF15B9D2FC270F279588946A
:101B100000C000C0002C15B9D3FC270F00C0002C5A
:101B200005B900C043FF15B927958894D4FC270F49
:101B300000C000C0002C15B92795889400C0002C67
:101B400005B900C042FF15B9D5FC270F2795889429
:101B500000C000C0002C15B9D6FC270F00C0002C17
:101B600005B900C041FF15B927958894D7FC270F08
:101B700000C000C0002C15B92795889400C0002C27
:101B800005B900C040FF15B9472FD110422F31953C
:101B900000C000C0002C15B93A0D00C000C005B946
:101BA00000C047FF15B971812227889400C000C08A
:101BB000002C15B97111780F00C0002C05B900C0B8
:101BC00046FF15B908F47FEF8195889400C000C0E6
:101BD000002C15B9F0FC270F00C0002C05B900C07F
:101BE00045FF15B927958894F1FC270F00C000C068
:101BF000002C15B92795889400C0002C05B900C0A9
:101C000044FF15B9F2FC270F2795889400C000C047
:101C1000002C15B9F3FC270F00C0002C05B900C03B
:101C200043FF15B927958894F4FC270F00C000C026
:101C3000002C15B92795889400C0002C05B900C068
:101C400042FF15B9F5FC270F2795889400C000C006
:101C5000002C15B9F6FC270F00C0002C05B900C0F8
:101C600041FF15B927958894F7FC270F00C000C0E5
:101C7000002C15B92795889400C0002C05B900C028
:101C800040FF15B9472FF110422F8C0D00C000C046
:101C9000002C15B9119709F086CE20EE31E0D30162
:101CA0000E94EC27DC01CB01F4E0B695A79597954F
:101CB0008795FA95D1F730E020E0B901EAE96E9E08
:101CC000060C611D7E9E600D711D1124670D711D36
:101CD000860F971FA11DB11D893E43E09407A10502
:101CE000B10508F434C0885E9340A109B10942E00F
:101CF000B695A795979587954A95D1F747E0849F24
:101D0000080E211D949F200D311D1124290F311D16
:101D10006091D50170E0860F971F820F931F40914D
:101D20007A0250917B0260917C0270917D02292F92
:101D30003327420F531F611D711D40937A02509348
:101D40007B0260937C0270937D028093D50178942E
:101D5000C201DF91CF911F910F91FF90EF90DF9023
:101D6000CF90AF909F908F907F906F905F904F90AB
:101D70000C947005219A08954F925F926F927F9212
:101D80008F929F92AF92CF92DF92EF92FF920F933A
:101D90001F93CF93DF93EB010F962C010E947A05DE
:101DA000F894E881F98105B1046015B11B7F15B97C
:101DB000CA848F814C2D481B842F4F839F846A8057
:101DC0007B80FD84EC84DE84F394E394D3949E8141
:101DD00038858984AB844181D30120E0622F722F42
:101DE0007181442788947111780F08F47FEF8195F1
:101DF0008894F0FC470F47958894F1FC470F47956E
:101E00008894F2FC470F47958894F3FC470F479559
:101E10008894F4FC470F47958894F5FC470F479545
:101E20008894F6FC470F47958894F7FC470F479531
:101E30008894272FF110242F8C0D422F002C05B9E8
:101E400000C047FF15B970812227889400C000C0E8
:101E5000002C15B97111790F00C0002C05B900C014
:101E600046FF15B908F47FEF9195889400C000C033
:101E7000002C15B9E0FC270F00C0002C05B900C0EC
:101E800045FF15B927958894E1FC270F00C000C0D5
:101E9000002C15B92795889400C0002C05B900C006
:101EA00044FF15B9E2FC270F2795889400C000C0B5
:101EB000002C15B9E3FC270F00C0002C05B900C0A9
:101EC00043FF15B927958894E4FC270F00C000C094
:101ED000002C15B92795889400C0002C05B900C0C6
:101EE00042FF15B9E5FC270F2795889400C000C074
:101EF000002C15B9E6FC270F00C0002C05B900C066
:101F000041FF15B927958894E7FC270F00C000C052
:101F1000002C15B92795889400C0002C05B900C085
:101F200040FF15B9472FE110422F980D00C000C0A7
:101F3000002C15B900C000C0002C05B900C047FF37
:101F400015B972812227889400C000C0002C15B9F1
:101F50007111730F00C0002C05B900C046FF15B900
:101F600008F47FEFE90DF11D00C000C0002C15B989
:101F7000D0FC270F00C0002C05B900C045FF15B9E3
:101F800027958894D1FC270F00C000C0002C15B9FC
:101F90002795889400C0002C05B900C044FF15B9EE
:101FA000D2FC270F2795889400C000C0002C15B9DB
:101FB000D3FC270F00C0002C05B900C043FF15B9A2
:101FC00027958894D4FC270F00C000C0002C15B9B9
:101FD0002795889400C0002C05B900C042FF15B9B0
:101FE000D5FC270F2795889400C000C0002C15B998
:101FF000D6FC270F00C0002C05B900C041FF15B961
:1020000027958894D7FC270F00C000C0002C15B975
:102010002795889400C0002C05B900C040FF15B971
:10202000472FD110422F319500C000C0002C15B9A8
:102030003A0D00C000C005B900C047FF15B9718155
:102040002227889400C000C0002C15B97111780FA8
:1020500000C0002C05B900C046FF15B908F47FEF99
:102060008195889400C000C0002C15B9F0FC270FA2
:1020700000C0002C05B900C045FF15B9279588940C
:10208000F1FC270F00C000C0002C15B927958894DB
:1020900000C0002C05B900C044FF15B9F2FC270FA1
:1020A0002795889400C000C0002C15B9F3FC270FB9
:1020B00000C0002C05B900C043FF15B927958894CE
:1020C000F4FC270F00C000C0002C15B92795889498
:1020D00000C0002C05B900C042FF15B9F5FC270F60
:1020E0002795889400C000C0002C15B9F6FC270F76
:1020F00000C0002C05B900C041FF15B92795889490
:10210000F7FC270F00C000C0002C15B92795889454
:1021100000C0002C05B900C040FF15B9472FF110D1
:10212000422F8C0D00C000C0002C15B9119709F08A
:1021300086CE20EE31E0D3010E94EC27DC01CB01FA
:10214000F4E0B695A79597958795FA95D1F730E085
:1021500020E0B901EAE96E9E060C611D7E9E600DCD
:10216000711D1124670D711D860F971FA11DB11DD3
:10217000893E43E09407A105B10508F434C0885EA8
:102180009340A109B10942E0B695A7959795879527
:102190004A95D1F747E0849F080E211D949F200D9A
:1021A000311D1124290F311D6091D50170E0860F7A
:1021B000971F820F931F40917A0250917B0260918A
:1021C0007C0270917D02292F3327420F531F611D1E
:1021D000711D40937A0250937B0260937C0270934E
:1021E0007D028093D5017894C201DF91CF911F9138
:1021F0000F91FF90EF90DF90CF90AF909F908F90D6
:102200007F906F905F904F900C947005229A089584
:102210004F925F926F927F928F929F92AF92CF92E6
:10222000DF92EF92FF920F931F93CF93DF93EB0117
:102230000F962C010E947A05F894E881F98105B186
:10224000086015B1177F15B9CA848F814C2D481BC2
:10225000842F4F839F846A807B80FD84EC84DE849E
:10226000F394E394D3949E8138858984AB8441812F
:10227000D30120E0622F722F71814427889471115D
:10228000780F08F47FEF81958894F0FC470F47950D
:102290008894F1FC470F47958894F2FC470F4795C7
:1022A0008894F3FC470F47958894F4FC470F4795B3
:1022B0008894F5FC470F47958894F6FC470F47959F
:1022C0008894F7FC470F47958894272FF110242F07
:1022D0008C0D422F002C05B900C047FF15B9708145
:1022E0002227889400C000C0002C15B97111790F05
:1022F00000C0002C05B900C046FF15B908F47FEFF7
:102300009195889400C000C0002C15B9E0FC270FFF
:1023100000C0002C05B900C045FF15B92795889469
:10232000E1FC270F00C000C0002C15B92795889448
:1023300000C0002C05B900C044FF15B9E2FC270F0E
:102340002795889400C000C0002C15B9E3FC270F26
:1023500000C0002C05B900C043FF15B9279588942B
:10236000E4FC270F00C000C0002C15B92795889405
:1023700000C0002C05B900C042FF15B9E5FC270FCD
:102380002795889400C000C0002C15B9E6FC270FE3
:1023900000C0002C05B900C041FF15B927958894ED
:1023A000E7FC270F00C000C0002C15B927958894C2
:1023B00000C0002C05B900C040FF15B9472FE1103F
:1023C000422F980D00C000C0002C15B900C000C0FD
:1023D000002C05B900C047FF15B9728122278894E7
:1023E00000C000C0002C15B97111730F00C0002C83
:1023F00005B900C046FF15B908F47FEFE90DF11DDE
:1024000000C000C0002C15B9D0FC270F00C0002C64
:1024100005B900C045FF15B927958894D1FC270F51
:1024200000C000C0002C15B92795889400C0002C6E
:1024300005B900C044FF15B9D2FC270F2795889431
:1024400000C000C0002C15B9D3FC270F00C0002C21
:1024500005B900C043FF15B927958894D4FC270F10
:1024600000C000C0002C15B92795889400C0002C2E
:1024700005B900C042FF15B9D5FC270F27958894F0
:1024800000C000C0002C15B9D6FC270F00C0002CDE
:1024900005B900C041FF15B927958894D7FC270FCF
:1024A00000C000C0002C15B92795889400C0002CEE
:1024B00005B900C040FF15B9472FD110422F319503
:1024C00000C000C0002C15B93A0D00C000C005B90D
:1024D00000C047FF15B971812227889400C000C051
:1024E000002C15B97111780F00C0002C05B900C07F
:1024F00046FF15B908F47FEF8195889400C000C0AD
:10250000002C15B9F0FC270F00C0002C05B900C045
:1025100045FF15B927958894F1FC270F00C000C02E
:10252000002C15B92795889400C0002C05B900C06F
:1025300044FF15B9F2FC270F2795889400C000C00E
:10254000002C15B9F3FC270F00C0002C05B900C002
:1025500043FF15B927958894F4FC270F00C000C0ED
:10256000002C15B92795889400C0002C05B900C02F
:1025700042FF15B9F5FC270F2795889400C000C0CD
:10258000002C15B9F6FC270F00C0002C05B900C0BF
:1025900041FF15B927958894F7FC270F00C000C0AC
:1025A000002C15B92795889400C0002C05B900C0EF
:1025B00040FF15B9472FF110422F8C0D00C000C00D
:1025C000002C15B9119709F086CE20EE31E0D30129
:1025D0000E94EC27DC01CB01F4E0B695A795979516
:1025E0008795FA95D1F730E020E0B901EAE96E9ECF
:1025F000060C611D7E9E600D711D1124670D711DFD
:10260000860F971FA11DB11D893E43E09407A105C8
:10261000B10508F434C0885E9340A109B10942E0D5
:10262000B695A795979587954A95D1F747E0849FEA
:10263000080E211D949F200D311D1124290F311DDD
:102640006091D50170E0860F971F820F931F409114
:102650007A0250917B0260917C0270917D02292F59
:102660003327420F531F611D711D40937A0250930F
:102670007B0260937C0270937D028093D5017894F5
:10268000C201DF91CF911F910F91FF90EF90DF90EA
:10269000CF90AF909F908F907F906F905F904F9072
:1026A0000C947005239A08950F931F93CF93DF9393
:1026B000CDB7DEB762970FB6F894DEBF0FBECDBFC1
:1026C0008C01F901DC011C968C917A8369835C830F
:1026D0004B835E834D8390819D8791819E879281FC
:1026E0009F878130F1F4CE0101960E94330583E08B
:1026F000888B1A8A198AD801ED91FC910484F5859A
:10270000E02DBE016F5F7F4FC801099562960FB63D
:10271000F894DEBF0FBECDBFDF91CF911F910F9117
:1027200008951C861B861A86198618861F82DFCF9D
:102730000F931F93CF93DF93CDB7DEB762970FB69A
:10274000F894DEBF0FBECDBF8C01F901DC011C96F1
:102750008C917A8369835C834B835E834D83908104
:102760009D8791819E8792819F878130E9F4CE0178
:1027700001960E943305188A1A8A198AD801ED91A8
:10278000FC910484F585E02DBE016F5F7F4FC80189
:10279000099562960FB6F894DEBF0FBECDBFDF91EC
:1027A000CF911F910F9108951C861B861A8619865A
:1027B00018861F82E0CF90E080E00895FC018585B7
:1027C00096850895CF93DF9300D000D000D0CDB789
:1027D000DEB7AB011C821D821E82DC01ED91FC91F3
:1027E0000190F081E02D19821A821B829E012F5FD9
:1027F0003F4FBE016C5F7F4F099526960FB6F89448
:10280000DEBF0FBECDBFDF91CF910895FC018AE0FE
:1028100091E091838083138212828FEF8683878376
:10282000808781878287838781E0848716861586E3
:10283000158214828091840290918502892B21F463
:10284000F0938502E0938402A091D301B091D4016A
:10285000109721F01596FC93EE931497F093D40102
:10286000E093D301089542E050E064E971E08AE822
:1028700092E00C94EF01CF93DF930E94D202EC011F
:102880000E9433148C0F9D1FDF91CF9108952F92DA
:102890003F924F925F926F927F928F92AF92CF92C0
:1028A000EF920F931F93CF93DF93CDB7DEB760976F
:1028B0000FB6F894DEBF0FBECDBF3C0189A1D30196
:1028C00018966C932301BEE94B1ABEEF5B0AF20126
:1028D00040831301FDE92F1AFEEF3F0AD1012C932B
:1028E000F301EC59FE4FFA83E983008393012B59DE
:1028F0003E4F3C832B83D901EC923296FE83ED83CD
:10290000C0823196A0823196808214968C93119663
:102910009AA19C9312961C9211961C9250971C920D
:1029200014969BA191116DC01C92930125593E4FA5
:1029300081116AC0D9011C92623009F06CC08FEF1E
:10294000F2018083D1011C92E981FA81108210E0AA
:10295000930128593E4F38872F83C30189599E4FD1
:102960009A878987D301AF59BE4FBC87AB87F301E4
:10297000E659FE4FFE87ED872F5F3F4F388B2F873D
:1029800080917802181708F04EC0E12FF0E0EE0FAA
:10299000FF1FEE58FD4F80819181D30116963C9127
:1029A000FC01278132132BC0AB85BC852C912F9362
:1029B000ED85FE8520812F93AF85B8892C912F93CB
:1029C000EF81F8858080A985BA85AC90ED81FE8184
:1029D000C080AB81BC81EC90E981FA810081D1019A
:1029E0002C91F2014081D30118966C910E944714FA
:1029F00088E690E00E943B140F900F900F901F5FAD
:102A0000BFCF91E09C9391CFD30111968C918150CF
:102A1000D9018C9391CF84E1633019F0611197CF84
:102A20008AE0808394CF60960FB6F894DEBF0FBE25
:102A3000CDBFDF91CF911F910F91EF90CF90AF90CD
:102A40008F907F906F905F904F903F902F90089560
:102A50002F923F924F925F926F927F928F92AF929E
:102A6000CF92EF92FF920F931F93CF93DF933C018E
:102A7000FC016783C0E080917802C81708F059C054
:102A8000EC2FF0E0EE0FFF1FEE58FD4F808191819B
:102A9000F3013781FC012681321349C08C010859AA
:102AA0001E4FBC0169597E4FAC014A595E4F9C01D3
:102AB0002B593E4FDC01AC59BE4F1C01FDE92F1ACA
:102AC000FEEF3F0A2C01DEE94D1ADEEF5D0A7C01C4
:102AD000EFE9EE1AEEEFFE0AF701F080FF927C01BB
:102AE000F6E9EF1AFEEFFF0AF701F080FF927C0192
:102AF000F7E9EF1AFEEFFF0AF701F080FF92F80105
:102B00008080FB01A080FA01C080F901E0800C9177
:102B1000F1012081F2014081FC0160850E9447148F
:102B20008DE790E00E943B140F900F900F90CF5FC5
:102B3000A2CFDF91CF911F910F91FF90EF90CF9097
:102B4000AF908F907F906F905F904F903F902F90BD
:102B50000895CF92DF92EF92FF920F931F93CF933E
:102B6000DF93CDB7DEB7A1970FB6F894DEBF0FBEE7
:102B7000CDBF282F30E050E040E019A28E010F5D5C
:102B80001F4F8AE0C82ED12CE12CF12CCA01B901CB
:102B9000A70196010E94A527605DF80162938F014D
:102BA000211531054105510589F7309701F1019053
:102BB0000020E9F73197AF01401B510BB8018AE8BB
:102BC00092E00E94EF018C010E943314800F911F4C
:102BD000A1960FB6F894DEBF0FBECDBFDF91CF91A7
:102BE0001F910F91FF90EF90DF90CF90089510E02C
:102BF00000E0EACFCF93DF93EC01888199810097C1
:102C000011F00E94A328198218821D821C821B8247
:102C10001A82DF91CF910895FC01808191810C94FB
:102C2000A3280E94E929FC0180819181009711F07D
:102C30000C94582560E070E0CB010895FC012481DC
:102C40003581232B39F421E0FB018081882349F071
:102C500020E007C0808191810E94F72921E0892B23
:102C6000B9F7822F08950F931F93CF93DF938C01B1
:102C7000EB01FC01808191810097E1F0688179810D
:102C800061157105A9F0428153812C813D81421764
:102C9000530770F00E94002A8C819D81F801958372
:102CA00084831D821C82DF91CF911F910F91089523
:102CB0000E94A32888819981F801918380838A8169
:102CC0009B81938382838C819D81958384831982E8
:102CD00018821B821A82E5CF0F931F93CF93DF9345
:102CE000EC0188819981009759F02A813B81261750
:102CF000370730F081E0DF91CF911F910F91089558
:102D00008B016F5F7F4F0E942C29009759F09983A8
:102D100088831B830A832C813D81232B59F7FC0177
:102D20001082E8CF80E0E7CFEF92FF920F931F93DE
:102D3000CF93DF936115710541F480E0DF91CF916E
:102D40001F910F91FF90EF90089541155105B1F03B
:102D50007B01EC010C811D81040F151FB8010E943D
:102D60006C16882351F3288139818C819D81B701AC
:102D7000820F931F0E94002A1D830C8381E0DECF07
:102D8000EF92FF920F931F93CF93DF93EC017B01A0
:102D90008A01BA010E946C1681110BC0CE010E94FB
:102DA000FA15CE01DF91CF911F910F91FF90EF9017
:102DB00008951D830C83B701888199810E94002AA0
:102DC000F0CFFB0101900020E9F73197AF01461BDE
:102DD000570B0C94C016FC011182108213821282D0
:102DE00015821482FB0101900020E9F73197AF01B1
:102DF000461B570B0C94C016AF92BF92CF92DF9236
:102E0000EF92FF920F931F93CF93DF936C015B01BF
:102E10007A0189012417350720F48F2D7901042FB9
:102E2000182F66E971E0C6010E94EB16D5011496D1
:102E3000CD91DC91EC16FD06E0F40C171D0708F4AB
:102E4000E801D501ED91FC911197EC0FFD1F108168
:102E500010826D917C916E0D7F1DC601611571050B
:102E6000A1F00E94E116F50180819181C80FD91F60
:102E70001883C601DF91CF911F910F91FF90EF90C2
:102E8000DF90CF90BF90AF9008950E94FA15EBCFDE
:102E90000F931F93CF93DF9300D000D000D0CDB716
:102EA000DEB701E08AE892E00E944D02892B09F426
:102EB000BDC08AE892E00E942B02182F89831A82F3
:102EC00041E050E0BE016F5F7F4F84E393E00E94DA
:102ED0009416133239F467E971E084E393E00E94B9
:102EE000E116E0CF1C3519F40093D201DBCF1B3281
:102EF00019F40093D101D6CF1F3519F40093D001F6
:102F0000D1CF8091D201882369F21E3659F61092F2
:102F1000D2018091D101882361F125E030E041E0C8
:102F200050E064E373E0CE0101960E94FC16CE01EE
:102F300001960E941316162FCE0101960E940C16C0
:102F400090917802A2E7B2E080E0981739F0ED9115
:102F5000FD91E159FE4F10838F5FF7CF10927902F8
:102F600066E971E084E393E00E94E1161092D101DA
:102F700099CF8091D001882309F455C064E670E0B0
:102F800080E090E00E94010569E971E0CE010196C0
:102F90000E94EB1640914403509145036091400319
:102FA00070914103CE0101960E949416811104C0D4
:102FB000CE0101960E94FA1541E050E069E971E006
:102FC000CE0101960E949416811104C0CE01019693
:102FD0000E94FA1540913E0350913F0360913A03DD
:102FE00070913B03CE0101960E949416811104C09A
:102FF000CE0101960E94FA154D815E8169817A8128
:103000008AE892E00E94EF01CE0101960E940C1620
:103010001092790266E971E084E393E00E94E11680
:103020001092D0013FCF009379023CCF26960FB685
:10303000F894DEBF0FBECDBFDF91CF911F910F91EE
:1030400008950E94590281110C94481708951F9207
:103050000F920FB60F9211242F933F934F935F93CC
:103060006F937F938F939F93AF93BF93EF93FF9350
:103070008AE892E00E946302FF91EF91BF91AF91C5
:103080009F918F917F916F915F914F913F912F9180
:103090000F900FBE0F901F9018951F920F920FB6B2
:1030A0000F9211242F938F939F93EF93FF93E091AF
:1030B0009A02F0919B028081E091A002F091A1021E
:1030C00082FD1BC090818091A3028F5F8F7320913E
:1030D000A402821741F0E091A302F0E0E657FD4F11
:1030E000958F8093A302FF91EF919F918F912F91E4
:1030F0000F900FBE0F901F9018958081F4CF1F92F4
:103100000F920FB60F9211242F933F938F939F939B
:10311000AF93BF9380917A0290917B02A0917C0241
:10312000B0917D023091D70123E0230F2D3758F560
:103130000196A11DB11D2093D70180937A0290932F
:103140007B02A0937C02B0937D028091D801909184
:10315000D901A091DA01B091DB010196A11DB11D49
:103160008093D8019093D901A093DA01B093DB0149
:10317000BF91AF919F918F913F912F910F900FBE73
:103180000F901F90189526E8230F0296A11DB11DE0
:10319000D2CFEAE8F2E01382128288EE93E0A0E058
:1031A000B0E084839583A683B78386E891E091831A
:1031B000808385EC90E09587848784EC90E0978706
:1031C000868780EC90E0918B808B81EC90E0938BF4
:1031D000828B82EC90E0958B848B86EC90E0978BD1
:1031E000868B118E128E138E148EE7E2F3E08FEF32
:1031F000808312821182148613868FEF9FEFDC0189
:1032000087839087A187B2876BE971E080E493E0C0
:103210000E94EB1660EA71E08AE393E00E94EB16ED
:1032200066E971E084E393E00C94EB16CF93DF93AF
:10323000CDB7DEB7EF970FB6F894DEBF0FBECDBFA8
:10324000789484B5826084BD84B5816084BD85B581
:10325000826085BD85B5816085BD80916E0081608D
:1032600080936E0010928100809181008260809333
:103270008100809181008160809381008091800035
:103280008160809380008091B10084608093B10060
:103290008091B00081608093B00080917A0084605A
:1032A00080937A0080917A00826080937A00809186
:1032B0007A00816080937A0080917A0080688093A0
:1032C0007A001092C100E0919A02F0919B0282E094
:1032D0008083E0919602F091970281E08083E091F3
:1032E0009802F091990280EA80831092A202E09104
:1032F0009E02F0919F0286E08083E0919C02F09113
:103300009D02808180618083E0919C02F0919D020A
:10331000808188608083E0919C02F0919D02808191
:1033200080688083E0919C02F0919D0280818F7D76
:10333000808340907902442009F417C310927902E7
:1033400089E691E00E94D2024091380350913903FE
:1033500060913403709135038AE892E00E94EF0196
:103360000E9433148AE892E00E94ED021E861D86B8
:10337000188A1F861A8A198A60913403709135035E
:103380006115710541F04091380350913903CE0128
:103390000D960E94C01666E971E0CE0107960E9464
:1033A000EB1625E030E041E050E0BE01635F7F4F67
:1033B000CE0101960E94FC16BE016F5F7F4FCE01C9
:1033C00007960E943316CE0101960E940C1667EAFA
:1033D00071E0CE0107960E941E16811136C06CEA7C
:1033E00071E0CE0107960E941E1611E081112EC0D9
:1033F00061EB71E0CE0107960E941E1612E081116A
:1034000025C066EB71E0CE0107960E941E1613E000
:1034100081111CC06BEB71E0CE0107960E941E1655
:1034200016E0811113C060EC71E0CE0107960E9496
:103430001E1617E081110AC065EC71E0CE010796F7
:103440000E941E1615E4811101C010E026E030E054
:1034500045E050E0BE01635F7F4FCE0101960E94C0
:10346000FC16CE0101960E941316762ECE0101960F
:103470000E940C1627E030E046E050E0BE01635F9A
:103480007F4FCE0101960E94FC16BE016F5F7F4FF9
:10349000CE0107960E943316CE0101960E940C16AB
:1034A000CE0107960E941316062F29E030E047E070
:1034B00050E0BE01635F7F4FCE0101960E94FC1673
:1034C000BE016F5F7F4FCE0107960E943316CE017B
:1034D00001960E940C16011150C1CE0107960E9460
:1034E0001316E62E2DE030E049E050E0BE01635FA8
:1034F0007F4FCE0101960E94FC16BE016F5F7F4F89
:10350000CE0107960E943316CE0101960E940C163A
:10351000CE0107960E941316562E812C612CF12C99
:1035200020E130E04DE050E0BE01635F7F4FCE010F
:1035300001960E94FC16BE016F5F7F4FCE01079679
:103540000E943316CE0101960E940C16CE010796FA
:103550000E941316962E23E130E040E150E0BE01B8
:10356000635F7F4FCE0101960E94FC16BE016F5F24
:103570007F4FCE0107960E943316CE0101960E941E
:103580000C16CE0107960E9413166B8B26E130E0D5
:1035900043E150E0BE01635F7F4FCE0101960E9480
:1035A000FC16BE016F5F7F4FCE0107960E94331657
:1035B000CE0101960E940C16CE0107960E941316AA
:1035C0006D8B29E130E046E150E0BE01635F7F4F43
:1035D000CE0101960E94FC16BE016F5F7F4FCE01A7
:1035E00007960E943316CE0101960E940C16CE015A
:1035F00007960E9413166D8F2CE130E049E150E0F0
:10360000BE01635F7F4FCE0101960E94FC16BE0192
:103610006F5F7F4FCE0107960E943316CE01019651
:103620000E940C16CE0107960E9413166F8B2FE195
:1036300030E04CE150E0BE01635F7F4FCE01019668
:103640000E94FC16BE016F5F7F4FCE0107960E945D
:103650003316CE0101960E940C16CE0107960E94E9
:1036600013166B8F22E230E04FE150E0BE01635F42
:103670007F4FCE0101960E94FC16BE016F5F7F4F07
:10368000CE0107960E943316CE0101960E940C16B9
:10369000CE0107960E9413166E8F25E230E042E2BB
:1036A00050E0BE01635F7F4FCE0101960E94FC1681
:1036B000BE016F5F7F4FCE0107960E943316CE0189
:1036C00001960E940C16CE0107960E94131668A35D
:1036D00028E230E045E250E0BE01635F7F4FCE015B
:1036E00001960E94FC16BE016F5F7F4FCE010796C8
:1036F0000E943316CE0101960E940C16CE01079649
:103700000E9413166AA32AE230E048E250E0BE01AC
:10371000635F7F4FCE0101960E94FC16BE016F5F72
:103720007F4FCE0107960E943316CE0101960E946C
:103730000C16CE0107960E941316D62EC12C80E0DF
:10374000B0907802CB1408F05BC0EC2DF0E0EE0FE7
:10375000FF1FEE58FD4FA080B180D50116969C91B9
:10376000D91209C08BE491E00E94D2028D2D0E94F3
:10377000A9151501842DC394E3CF812C612CF12C64
:103780000130D9F5CE0107960E941316F62E2BE0D4
:1037900030E049E050E0BE01635F7F4FCE0101960B
:1037A0000E94FC16BE016F5F7F4FCE0107960E94FC
:1037B0003316CE0101960E940C16CE0107960E9488
:1037C0001316662E2DE030E04BE050E0BE01635F43
:1037D0007F4FCE0101960E94FC16BE016F5F7F4FA6
:1037E000CE0107960E943316CE0101960E940C1658
:1037F000CE0107960E941316862EE12C512C90CEF6
:10380000811153C083E791E00E9407281C01FC014D
:1038100010828AE0818312821382148215828FEFD4
:1038200087831086E35AFE4F1082319621E0208371
:103830003196108231961082319610823196108224
:103840003196108231961082319610823196108214
:103850003196108231961082319610823196108204
:1038600031961082319610823196108231961082F4
:1038700031961082319610823196108231961082E4
:10388000D1011696DC92EB2DF0E0EE0FFF1FEE5803
:10389000FD4F31822082B394B09278028FE291E0A2
:1038A0000E94D2028D2D0E94A915F1010083518240
:1038B000E282F382648285820111E9C18E2D0E9429
:1038C000080184EE90E00E94D202D10112968C9100
:1038D0000E94A9158AE892E00E94ED02F10182811E
:1038E000863009F474C108F007C1833009F42DC192
:1038F000853009F44CC184ED90E00E943B148AE8C5
:1039000092E00E94ED0225E030E041E050E0BE018F
:10391000635F7F4FCE0101960E94FC166AEC71E056
:10392000CE0101960E941E16082FCE0101960E941C
:103930000C16002309F4DDC18BE191E00E94D20254
:10394000892D0E94A915692DC1010E942815CE015B
:1039500007960E940C16CE010D960E940C1666E981
:1039600071E084E393E00E94E1161D8E809178025D
:103970002D8D281710F00C943C25E22FF0E0EE0F6F
:10398000FF1FEE58FD4F00811181F801E459FE4FF1
:103990008081D801A859BE4F9C9189130C94392578
:1039A000D80118968C911897833009F493C308F0C6
:1039B000C6C1813009F494C239976F0198012C591E
:1039C0003E4F79013197A8014F595E4F5C8F4B8F65
:1039D000B80160597E4F7C8B6B8BAF58BE4FBE8B4E
:1039E000AD8B823008F4EAC18081D6019C91B80188
:1039F000625A7E4FDB012C91222309F4E9C288230D
:103A000009F4DFC2815080839F5FD6019C9360815F
:103A100070E090E080E00E9496252B013C01D601E9
:103A20006C9170E090E080E00E9496254B015C0173
:103A3000F701608170E090E080E00E9496256F8B36
:103A4000788F898F9A8FAB8DBC8D8C91F8018823EC
:103A500009F4E9C2E159FE4F608170E090E080E036
:103A60000E94942520E030E04FE753E40E94E026D6
:103A70006B017C01AC019B01C301B2010E94D12505
:103A80000E945227EB89FC896083A7019601C5013A
:103A9000B4010E94D1250E945227AD89BE896C9342
:103AA0005801BEE8AB1ABEEFBB0AA70196016F89A9
:103AB000788D898D9A8D0E94D1250E945227F5011B
:103AC0006083F80180818111E6C24181E25AFF4F93
:103AD000B8016E587E4F481709F4DEC1DB019C9196
:103AE000AD89BE892C91AB89BC893C9130832183FF
:103AF00092838F5F3396EFCF8A3009F488C08B3082
:103B000009F4A5C0893009F0F6CEE180F12C6101FD
:103B1000BEE5CB0ED11C80913802811111C087E225
:103B200092E00E9406141092370210923602E0E5ED
:103B3000F1E0F0932802E0932702F1E0F0933802DD
:103B4000A701B60187E292E01FC0E180F12C61017C
:103B5000BEE5CB0ED11C8091ED01811111C08CED21
:103B600091E00E9406141092EC011092EB018AE1A0
:103B700091E09093DD018093DC01E1E0E093ED01C1
:103B8000A701B6018CED91E00E942701B4CEE1803F
:103B9000F12C6101BEE5CB0ED11C80910602811192
:103BA00011C085EF91E00E94061410920502109258
:103BB00004028CE291E09093F6018093F501E1E03C
:103BC000E0930602A701B60185EF91E0DDCFE18029
:103BD000F12C6101BEE5CB0ED11C80911F02811139
:103BE00011C08EE092E00E94061410921E02109204
:103BF0001D02EEE3F1E0F0930F02E0930E02F1E01C
:103C0000F0931F02A701B6018EE092E0BDCFE180E4
:103C1000F12C6101BEE5CB0ED11C809151028111C6
:103C200011C080E492E00E9406141092500210929B
:103C30004F02E2E6F1E0F0934102E0934002F1E04E
:103C4000F0935102A701B60180E492E09DCFE1809C
:103C5000F12C6101BEE5CB0ED11C80916A0281116D
:103C600011C089E592E00E94061410926902109238
:103C70006802E4E7F1E0F0935A02E0935902F1E0C0
:103C8000F0936A02A701B60189E592E07DCF013089
:103C900009F039CE8F2D0E94080188EC90E00E9437
:103CA000D202D10113968C910E94A9158AE892E064
:103CB0000E94ED02F10184810E9408018CEB90E0EA
:103CC0000E94D202D10114968C910E94A9158AE813
:103CD00092E00E94ED02F10185810E94080180EBD3
:103CE00090E00E94D202D10115968C910E94A915F4
:103CF00006CE6FEFC1010E9428157F92BAA1BF9333
:103D0000E8A1EF938E8CAB8CCF88ED8C0D892B893D
:103D1000492D612FC1010E94471488E091E00E9463
:103D2000D202812F0E94A9150F900F900F90F1E001
:103D30007F120DCE80EF90E00E943B1408CE8730BA
:103D400009F445C4853409F461C6863009F0A6C07B
:103D50007801F2E9EF1AFEEFFF0AD701EC91480172
:103D6000B5E98B1ABEEF9B0AD4015C91D80111967C
:103D70004C911197C8018D599E4FAC59BE4F980177
:103D80002E593E4FB80167597E4F788F6F8B54176D
:103D900009F4DEC3EC3008F003C3F0E0EE52F14E5C
:103DA0000C94E627CA2167226E22722277227A2299
:103DB00082228922902297229B22A122D601CC9096
:103DC000D901DC90B080EB8DFC8D808198012E585C
:103DD0003E4F7901882309F456C0F801E159FE4F9E
:103DE000608170E090E080E00E94942520E030E067
:103DF0004FE753E40E94E0262B013C016B2D70E05D
:103E000090E080E00E949625A30192010E94D125B6
:103E10000E945227AB89BC896C936C2D70E090E0B6
:103E200080E00E949625A30192010E94D1250E9464
:103E30005227ED89FE8960836D2D70E090E080E06F
:103E40000E949625A30192010E94D1250E9452272B
:103E5000D7016C93D8018C91811128C011964C9197
:103E6000F801E25AFF4F4817B9F0D7019C91AD898C
:103E7000BE892C91AB89BC893C913083218392838C
:103E80008F5F3396F0CFEB89FC89B082AD89BE8914
:103E9000CC92F901D082DECF0E94DA03F801E45916
:103EA000FE4F1082BD8DBF5FBD8F60CD8130B1F7F9
:103EB000EB89FC89608170E013968C910E94590314
:103EC000ED89FE89608170E0D80114968C910E9482
:103ED0005903F701608170E0D80115968C91F7C005
:103EE000F801E35AFE4F8081811118C01196DC90D1
:103EF000ED2CF12C9801275F3F4F40E04D1509F460
:103F00005DC08FEF90E0B7010E949127469F602D22
:103F10001124D9016D939D014F5FF0CFF801EF5946
:103F2000FE4F8081D12C7801882319F1B1E9EB1A79
:103F3000BEEFFB0AF8018181D81608F0ADCFD7019A
:103F40009C91ED0DF11D818521E0280F218789834A
:103F5000BFEFBA839B83B801E3E0DE9E600D711D65
:103F60001124625A7F4FCE0101960E946B01D394B7
:103F7000E1CFF6E9EF1AFEEFFF0AD80111968C9116
:103F8000D81608F089CFF7019081F801ED0DF11DE9
:103F9000818521E0280F21878983FFEFFA839B83A6
:103FA000B80123E0D29E600D711D1124625A7F4F2B
:103FB000CE0101960E946B01D394DFCFB1E0B083B4
:103FC0006DCF1C92D801A05ABE4F21E02C931FCD7B
:103FD000D7014C919801205A3E4FD9015C9155234D
:103FE00071F0992339F09150D6019C934F5FD7011E
:103FF0004C930DCD1C92D801A15ABE4FE6CF98012B
:10400000215A3E4FD9019C91992309F400CD4423B4
:1040100031F04150D7014C938F5F8083F8CC1C92D4
:1040200021E0DB01D3CFE659FE4F608170E090E0E4
:1040300080E00E94942520E030E04FE753E40E94A6
:10404000E0266B017C01AC019B01C301B2010E941F
:10405000D1250E945227AB89BC896C93A701960198
:10406000C501B4010E94D1250E945227ED89FE8925
:1040700060835801FEE8AF1AFEEFBF0AA701960160
:104080006F89788D898D9A8D0E94D1250E94522743
:10409000D5016C9316CD813009F000CFEB89FC89F6
:1040A000608170E0D80113968C910E945903ED89CC
:1040B000FE89608170E0D80114968C910E945903AA
:1040C000F801EE58FE4F608170E0F80185810E9492
:1040D0005903E4CEDC90D1101EC13801B5E96B1A4A
:1040E000BEEF7B0AF301808190E0D80111968C909D
:1040F0009C01225031098216130609F4E8C0379753
:10410000FC8BEB8B98012D593E4F3E8B2D8B28015C
:104110003EE9431A3EEF530AD3018C91ED2CF12C6A
:104120005701AA0CBB1CD81221C0EB89FC898081E5
:10413000AD89BE899C91EA0CFB1CE00EF11EF701D3
:10414000E25AFF4FD2012C91208331969083B0E642
:10415000EB0EF11CF7018083D3948D14E8F60E94D6
:10416000DA03F30180818F5F808398CE90E097011E
:10417000215031092817390731F02E5F3F4F821740
:10418000930709F043C0AB89BC896C9170E090E063
:1041900080E00E9496252AE939E949E95EE30E9418
:1041A000D1250E945227C62EED89FE89608170E0DC
:1041B00090E080E00E9496252AE939E949E95EE32A
:1041C0000E94D1250E945227962EEA0CFB1CE00E7D
:1041D000F11E5701FEE5AF0EB11CD2016C9170E0EB
:1041E00090E080E00E9496252AE939E949E95EE3FA
:1041F0000E94D1250E945227F5016083319690825A
:10420000F0E6EF0EF11CD701CC92A6CF9701225019
:1042100031098217930731F02C5F3F4F82179307C4
:1042200009F045C0EB89FC89608170E090E080E096
:104230000E9496252AE037ED43E25CE30E94D125F7
:104240000E945227C62EAD89BE896C9170E090E025
:1042500080E00E9496252AE037ED43E25CE30E946D
:10426000D1250E945227962EEA0CFB1CE00EF11E6F
:104270005701BEE5AB0EB11CF201608170E090E029
:1042800080E00E9496252AE037ED43E25CE30E943D
:10429000D1250E945227D5016C93F701E15AFF4FB7
:1042A0009082B0E6EB0EF11CF701C08255CFEA0C0C
:1042B000FB1CE00EF11EF701E25AFF4F108231960F
:1042C0001082F0E6EF0EF11CD7011C9245CF9C0145
:1042D00023503109C901880F991F820F931F800F46
:1042E000911FFC01E25AFF4F108231961082805AD2
:1042F0009F4FDC011C920E94DA03F801E359FE4F44
:1043000080818F5F8083883209F0C8CD2EEFD30182
:104310002C931082C3CD31E0D312C0CD780143E994
:10432000E41A4EEFF40AD7018C9181111EC0F801F6
:10433000EE59FE4F608170E0F80183810E945903BD
:10434000F801ED59FE4F608170E0D80114968C9110
:104350000E945903F801EC59FE4F608170E0F801AA
:1043600085810E945903F701FDCE8832E1F770E0A4
:1043700060E0D80113968C910E94590370E060E0D0
:10438000F80184810E94590370E060E0D80115961D
:104390008C91E7CF4FEFF9014083FC0110821C9212
:1043A000F901A080FC01B080FC91FD8BF801EF5970
:1043B000FE4F8081980120593E4F6901A8014F5856
:1043C0005E4F5C8B4B8B882309F4D3C03E96608193
:1043D00070E090E080E00E94942520E030E04FE71C
:1043E00053E40E94E0262B013C016A2D70E090E02E
:1043F00080E00E949625A30192010E94D1250E948F
:104400005227D6016C936B2D70E090E080E00E9403
:104410009625A30192010E94D1250E945227EB8983
:10442000FC8960835801FEE8AF1AFEEFBF0A2D89B0
:10443000622F70E090E080E00E949625A301920137
:104440000E94D1250E945227D5016C93F8018081EA
:1044500081119AC0EE58FE4F4081AB89BC895C91B6
:10446000F401808190E09C01220F331F820F931F83
:10447000800F911FFC01E25AFF4FD6012C9120833F
:1044800031965083805A9F4FFC0140830E94DA038B
:10449000EF89F88D2081D4018C91211191C08F5F1B
:1044A0008C93D4019C91F8018181981719F09F3F5A
:1044B00009F0F4CCD7019C919B3009F485C09F5F33
:1044C0009C938150F40121114FCE1082E7CC4FEF25
:1044D000F90140834FE7FC01408361CF4FEFF901C1
:1044E0004083F9CF4FE7F90140834FEFF4CFF90153
:1044F0001082FBCFF90110824FEFFC0140835FE790
:104500005C934ECFF90110824FEFFC0140834C9336
:1045100047CFF90110824FE7FC0140835FEFF0CFF6
:10452000F9011082FC011082FFEFFC9339CF4FE7B5
:10453000F9014083F7CF4FEFF9014083FC0110826E
:10454000E6CF4FEFF9014083FC011082FFE7EDCF8A
:10455000EB3061F041E04E0FF7014083EF89F88DB9
:10456000408141111DCFF40110821ACFF701108252
:10457000F5CFF901A082AB89BC89BC92F801EE5855
:10458000FE4FBD89B08362CF813009F081CFD60163
:104590006C9170E083810E945903AB89BC896C9156
:1045A00070E0F80184810E945903F801EE58FE4F33
:1045B000608170E0D80115968C910E94590368CFF4
:1045C0008150F40180836DCFF70110827ACF8C91F6
:1045D0008111DFC11196BC91BD8BF801E559FE4FE9
:1045E00080818B1301C01082FD89EF2FF0E0F88FDE
:1045F000EF8BF801E659FE4F8081482E512C2F8910
:10460000388D240D351D3DA72CA71B8AA8014559BF
:104610005E4F5C8F4B8FB8016C597E4F7F8F6E8FD2
:10462000C8018D599E4F99A388A3D801AE59BE4F9A
:10463000BBA3AAA33397FBAFEAAF98012A593E4F19
:104640003DAF2CAF465051095FAF4EAF5B89E52EB1
:10465000F12C6CA57DA5E616F7060CF092C1AB8D8A
:10466000BC8D2C913701660C771C521319C0EE8D4E
:10467000FF8D8081A8A1B9A19C91E60CF71CF801DF
:10468000EE0DFF1DAF01425A5F4FAAA1BBA12C91B5
:10469000DA012C9311969C93E05AFF4F8083FDC062
:1046A000822E912CBB892B1730F4C201880D991DE5
:1046B0008E159F055CF4C40184199509EB89E217F6
:1046C00008F0EFC0E816F9060CF4EBC0AE8DBF8D14
:1046D000DC90E8A1F9A1C080AAA1BBA1BC90C30154
:1046E0008E0D9F1D800F911FFC01E25AFF4FB0827B
:1046F0003196C082805A9F4FFC01D082FD892B8960
:104700002F1708F47EC0A12CC7010196AC016F8958
:10471000788D461B570B5DA34CA38B2D90E0B0E02A
:10472000A0E08EA79FA7A8ABB9AB2C2D30E050E03E
:1047300040E02AAB3BAB4CAB5DAB4D2D50E070E0A5
:1047400060E04EAB5FAB68AF79AF2A2D30E06CA173
:104750007DA1261737070CF054C0C901880F991F97
:10476000820F931F800F911FDC01A25ABF4FBFA37E
:10477000AEA3BC92FC01E15AFF4FF9A7E8A7C082A3
:10478000AC01405A5F4F5BA74AA7DA01DC922F5F6A
:104790003F4F6217730799F56EA57FA588A999A960
:1047A0000E9496252AE939E949E95EE30E94D1256C
:1047B0000E945227EEA1FFA160836AA97BA98CA960
:1047C0009DA90E9496252AE939E949E95EE30E94FC
:1047D000D1250E945227A8A5B9A56C936EA97FA9DF
:1047E00088AD99AD0E9496252AE939E949E95EE349
:1047F0000E94D1250E945227EAA5FBA56083A394BD
:10480000A4CFC201880D991DE816F90639F0C4013C
:1048100084199509E816F90609F03FC0E60CF71C63
:10482000E00EF11E4701FEE58F0E911C6B2D70E02E
:1048300090E080E00E9496252AE939E949E95EE3A3
:104840000E94D1250E945227D4016C935701BFE5E5
:10485000AB0EB11C6C2D70E090E080E00E949625BC
:104860002AE939E949E95EE30E94D1250E945227ED
:10487000F5016083F0E6EF0EF11C6D2D70E090E025
:1048800080E00E9496252AE939E949E95EE30E9421
:10489000D1250E945227D7016C93FB89FF5FFB8BC8
:1048A000D5CEEF89F88D8E0F9F1FE816F9060CF410
:1048B00050C0AE8DBF8D9C90E8A1F9A18080AAA1C7
:1048C000BBA16C916E0C7F1C600E711E5301BEE586
:1048D000AB0EB11CF50160836301FFE5CF0ED11C67
:1048E000D6018C92B0E66B0E711CF3019082E81633
:1048F000F90699F670E090E080E00E9496252AE99A
:1049000039E949E95EE30E94D1250E945227D50189
:104910006C93682D70E090E080E00E9496252AE973
:1049200039E949E95EE30E94D1250E945227F60148
:104930006083692D70E090E080E00E9496252AE96E
:1049400039E949E95EE30E94D1250E945227D3014B
:10495000A3CFEAADFBAD8081ACADBDAD9C91E60CC3
:10496000F71CE00EF11EF701E25AFF4FAEADBFADEE
:104970002C91208331969083B0E6EB0EF11CF70169
:104980008DCE0E94DA03AB8DBC8D8C918F5F8C93A2
:1049900085CA813009F082CA7801B3E9EB1ABEEF0B
:1049A000FB0AF701808181111DC03B97608170E097
:1049B000D80113968C910E945903F801ED59FE4FCE
:1049C000608170E0F80184810E945903F801EC597C
:1049D000FE4F608170E0D80115968C910E945903BA
:1049E000D701D3CF8832E1F770E060E0F80183812E
:1049F0000E94590370E060E0D80114968C910E94E7
:104A0000590370E060E0F8018581E8CFF801F0809B
:104A1000F1101DC0D80111968C91F81608F03ECA0D
:104A20002F2D30E0C901880F991F820F931F800F2F
:104A3000911FFC01E25AFF4F108231961082805A7A
:104A40009F4FFC0110820E94DA03F394E3CFF1E060
:104A5000FF1224CA70E060E013968C910E94590303
:104A600070E060E0F80184810E94590370E060E02A
:104A700033CA8F5F808316CA61E070E080E090E007
:104A80000E9401050E945902882311F40C9499197F
:104A90000E9448170C94991984E393E00E940C1625
:104AA0008AE393E00E940C1680E493E00C940C16C9
:104AB0001F93FC0199278827BC01E89411911032BB
:104AC000E9F3193010F01E30C8F31B3251F01D32DB
:104AD00049F4689406C00E947F25610F711D811DF5
:104AE000911D119110531A30B0F33EF490958095BA
:104AF000709561957F4F8F4F9F4F1F910895592F4C
:104B0000482F372F262F660F771F881F991F660F94
:104B1000771F881F991F620F731F841F951F660FD1
:104B2000771F881F991F0895E89409C097FB3EF4EA
:104B300090958095709561957F4F8F4F9F4F9923EA
:104B4000A9F0F92F96E9BB279395F6958795779568
:104B50006795B795F111F8CFFAF4BB0F11F460FF28
:104B60001BC06F5F7F4F8F4F9F4F16C0882311F080
:104B700096E911C0772321F09EE8872F762F05C094
:104B8000662371F096E8862F70E060E02AF09A952F
:104B9000660F771F881FDAF7880F9695879597F924
:104BA00008950E94E4250C9455260E94472638F06B
:104BB0000E944E2620F0952311F00C943E260C9472
:104BC000442611240C9489260E94662670F3959F32
:104BD000C1F3950F50E0551F629FF001729FBB27F4
:104BE000F00DB11D639FAA27F00DB11DAA1F649F90
:104BF0006627B00DA11D661F829F2227B00DA11D43
:104C0000621F739FB00DA11D621F839FA00D611DC8
:104C1000221F749F3327A00D611D231F849F600DE9
:104C2000211D822F762F6A2F11249F5750409AF012
:104C3000F1F088234AF0EE0FFF1FBB1F661F771F9E
:104C4000881F91505040A9F79E3F510580F00C9469
:104C50003E260C9489265F3FE4F3983ED4F3869574
:104C600077956795B795F795E7959F5FC1F7FE2B09
:104C7000880F911D9695879597F9089597F99F67E5
:104C800080E870E060E008959FEF80EC08950024D4
:104C90000A941616170618060906089500240A94A1
:104CA00012161306140605060895092E0394000C27
:104CB00011F4882352F0BB0F40F4BF2B11F460FFB6
:104CC00004C06F5F7F4F8F4F9F4F089557FD9058DF
:104CD000440F551F59F05F3F71F04795880F97FBC0
:104CE000991F61F09F3F79F087950895121613067A
:104CF0001406551FF2CF4695F1DF08C016161706A9
:104D00001806991FF1CF86957105610508940895DD
:104D1000E894BB2766277727CB0197F908950E946F
:104D2000D126A59F900DB49F900DA49F800D911D3D
:104D3000112408952F923F924F925F926F927F922B
:104D40008F929F92AF92BF92CF92DF92EF92FF929B
:104D50000F931F93CF93DF93CDB7DEB7CA1BDB0B47
:104D60000FB6F894DEBF0FBECDBF09942A883988EC
:104D700048885F846E847D848C849B84AA84B984F3
:104D8000C884DF80EE80FD800C811B81AA81B981FF
:104D9000CE0FD11D0FB6F894DEBF0FBECDBFED0113
:104DA0000895A29FB001B39FC001A39F700D811D04
:104DB0001124911DB29F700D811D1124911D089524
:104DC0000E94F4260C9455260E944E2658F00E940C
:104DD000472640F029F45F3F29F00C943E265111FC
:104DE0000C9489260C9444260E94662668F3992325
:104DF000B1F3552391F3951B550BBB27AA276217D7
:104E00007307840738F09F5F5F4F220F331F441FE3
:104E1000AA1FA9F335D00E2E3AF0E0E832D0915017
:104E20005040E695001CCAF72BD0FE2F29D0660F04
:104E3000771F881FBB1F261737074807AB07B0E847
:104E400009F0BB0B802DBF01FF2793585F4F3AF04D
:104E50009E3F510578F00C943E260C9489265F3FC6
:104E6000E4F3983ED4F3869577956795B795F795D3
:104E70009F5FC9F7880F911D9695879597F90895BB
:104E8000E1E0660F771F881FBB1F62177307840757
:104E9000BA0720F0621B730B840BBA0BEE1F88F766
:104EA000E09508950E946E2688F09F5798F0B92FDC
:104EB0009927B751B0F0E1F0660F771F881F991F4F
:104EC0001AF0BA95C9F714C0B13091F00E94882643
:104ED000B1E008950C948826672F782F8827B85F53
:104EE00039F0B93FCCF3869577956795B395D9F7A7
:104EF0003EF490958095709561957F4F8F4F9F4FB1
:104F00000895DB018F939F930E948F26BF91AF91ED
:104F1000A29F800D911DA39F900DB29F900D112413
:104F2000089597FB072E16F4009407D077FD09D05B
:104F30000E94F32707FC05D03EF4909581959F4F82
:104F40000895709561957F4F0895A1E21A2EAA1BCE
:104F5000BB1BFD010DC0AA1FBB1FEE1FFF1FA21729
:104F6000B307E407F50720F0A21BB30BE40BF50B26
:104F7000661F771F881F991F1A9469F760957095AF
:104F8000809590959B01AC01BD01CF010895052E40
:104F900097FB1EF400940E94DE2757FD07D00E9465
:104FA000A52707FC03D04EF40C94DE2750954095BE
:104FB000309521953F4F4F4F5F4F089590958095C5
:104FC000709561957F4F8F4F9F4F0895EE0FFF1F94
:104FD0000590F491E02D09940E94D126B7FF089521
:104FE000821B930B0895AA1BBB1B51E107C0AA1F8C
:104FF000BB1FA617B70710F0A61BB70B881F991F7A
:105000005A95A9F780959095BC01CD0108950F930D
:105010001F93CF93DF938230910510F482E090E0EC
:10502000E0914803F091490330E020E0B0E0A0E0D7
:10503000309799F42115310509F44AC0281B390B22
:1050400024303105D8F58A819B816115710589F17C
:10505000FB0193838283FE0111C040815181028153
:10506000138148175907E0F04817590799F410972A
:1050700061F012960C93129713961C933296CF01FF
:10508000DF91CF911F910F910895009348031093E2
:105090004903F4CF2115310551F04217530738F079
:1050A000A901DB019A01BD01DF01F801C1CFEF01C8
:1050B000F9CF9093490380934803CDCFFE01E20FCF
:1050C000F31F819391932250310939832883D7CFDD
:1050D0002091460330914703232B41F42091020194
:1050E0003091030130934703209346032091000140
:1050F000309101012115310541F42DB73EB74091A2
:10510000040150910501241B350BE0914603F091F9
:105110004703E217F307A0F42E1B3F0B28173907AC
:1051200078F0AC014E5F5F4F2417350748F04E0F03
:105130005F1F5093470340934603819391939FCF02
:10514000F0E0E0E09CCFCF93DF930097E9F0FC0123
:10515000329713821282A0914803B0914903ED0166
:1051600030E020E01097A1F420813181820F931F5D
:1051700020914603309147032817390709F061C091
:10518000F0934703E0934603DF91CF910895EA013E
:10519000CE17DF07E8F54A815B819E014115510575
:1051A000B1F7E901FB83EA8349915991C40FD51FF7
:1051B000EC17FD0761F4808191810296840F951FA1
:1051C000E90199838883828193819B838A83F0E0BC
:1051D000E0E012968D919C9113970097B9F52D916F
:1051E0003C911197CD010296820F931F20914603A7
:1051F000309147032817390739F6309751F5109247
:10520000490310924803B0934703A0934603BCCFD1
:10521000D383C28340815181840F951FC817D9075A
:1052200061F44E5F5F4F88819981480F591F518308
:1052300040838A819B81938382832115310509F004
:10524000B0CFF0934903E09348039ECFFD01DC010A
:10525000C0CF13821282D7CFB0E0A0E0E2E3F9E240
:105260000C949C268C01009751F4CB010E940728D6
:105270008C01C801CDB7DEB7E0E10C94B826FC0183
:10528000E60FF71F9C0122503109E217F30708F4DB
:105290009DC0D901CD91DC911197C617D70798F021
:1052A000C530D10530F3CE0104978617970708F370
:1052B000C61BD70B2297C193D1936D937C93CF01DB
:1052C0000E94A328D6CF5B01AC1ABD0A4C018C0EFC
:1052D0009D1EA0914803B0914903512C412CF12C03
:1052E000E12C109731F58091460390914703881582
:1052F000990509F05CC04616570608F058C0809121
:10530000000190910101009741F48DB79EB7409143
:10531000040150910501841B950BE817F90708F06B
:1053200055C0F0934703E0934603F901718360830E
:10533000A0CF8D919C91119712966C901297139615
:105340007C901397A815B90559F56C0142E0C40E7D
:10535000D11CCA14DB0420F1AC014A195B09DA0143
:105360001296159780F06282738251834083D9012F
:105370006D937C93E114F10471F0D7011396FC93C3
:10538000EE93129776CF22968C0F9D1FF901918391
:105390008083F301EFCFF0934903E093480369CF93
:1053A0004816590608F42C017D01D3019ACFCB0190
:1053B0000E9407287C01009749F0AE01B8010E94C5
:1053C000EE29C8010E94A328870153CF10E000E016
:1053D00050CF81E090E0F8940C94072AFB01DC01A7
:1053E00002C001900D9241505040D8F70895FB0142
:1053F000DC018D91019080190110D9F3990B08956A
:10540000FB01DC0101900D920020E1F7089510E00E
:10541000CDEDD0E004C0FE010E94E6272196CE3DEE
:08542000D107C9F7F894FFCF92
:1054280000004A0380000000000011161116111632
:10543800E213DE13DB130000000098135413D607A1
:10544800E213DE13D30789050000000098135413F4
:10545800220AE213DE13D307D807000000009813CE
:1054680054136E0CE213DE13D307240A0000000065
:1054780098135413BA0EE213DE13D307700C00000E
:105488000000981354130611E213DE13D307BC0E61
:1054980000000000981354135213E213DE13D307CD
:1054A8000811000000008502EF011C02ED024D0208
:1054B8002B023F020D0A0023005F00312E30350019
:1054C8004E616E6F5233005354544300524E42574C
:1054D800004359434C004C494E47004F56524C002C
:1054E8005350494E00544F46460053594E4300000E
:00000001FF
